{
  "contractName": "Pausable",
  "abi": [
    {
      "constant": true,
      "inputs": [],
      "name": "paused",
      "outputs": [
        {
          "name": "",
          "type": "bool"
        }
      ],
      "payable": false,
      "stateMutability": "view",
      "type": "function"
    },
    {
      "constant": false,
      "inputs": [],
      "name": "renounceOwnership",
      "outputs": [],
      "payable": false,
      "stateMutability": "nonpayable",
      "type": "function"
    },
    {
      "constant": true,
      "inputs": [],
      "name": "owner",
      "outputs": [
        {
          "name": "",
          "type": "address"
        }
      ],
      "payable": false,
      "stateMutability": "view",
      "type": "function"
    },
    {
      "constant": false,
      "inputs": [
        {
          "name": "_newOwner",
          "type": "address"
        }
      ],
      "name": "transferOwnership",
      "outputs": [],
      "payable": false,
      "stateMutability": "nonpayable",
      "type": "function"
    },
    {
      "anonymous": false,
      "inputs": [],
      "name": "Pause",
      "type": "event"
    },
    {
      "anonymous": false,
      "inputs": [],
      "name": "Unpause",
      "type": "event"
    },
    {
      "anonymous": false,
      "inputs": [
        {
          "indexed": true,
          "name": "previousOwner",
          "type": "address"
        }
      ],
      "name": "OwnershipRenounced",
      "type": "event"
    },
    {
      "anonymous": false,
      "inputs": [
        {
          "indexed": true,
          "name": "previousOwner",
          "type": "address"
        },
        {
          "indexed": true,
          "name": "newOwner",
          "type": "address"
        }
      ],
      "name": "OwnershipTransferred",
      "type": "event"
    },
    {
      "constant": false,
      "inputs": [],
      "name": "pause",
      "outputs": [],
      "payable": false,
      "stateMutability": "nonpayable",
      "type": "function"
    },
    {
      "constant": false,
      "inputs": [],
      "name": "unpause",
      "outputs": [],
      "payable": false,
      "stateMutability": "nonpayable",
      "type": "function"
    }
  ],
  "bytecode": "0x608060405260008060146101000a81548160ff021916908315150217905550336000806101000a81548173ffffffffffffffffffffffffffffffffffffffff021916908373ffffffffffffffffffffffffffffffffffffffff1602179055506107d18061006d6000396000f300608060405260043610610078576000357c0100000000000000000000000000000000000000000000000000000000900463ffffffff1680633f4ba83a1461007d5780635c975abb14610094578063715018a6146100c35780638456cb59146100da5780638da5cb5b146100f1578063f2fde38b14610148575b600080fd5b34801561008957600080fd5b5061009261018b565b005b3480156100a057600080fd5b506100a96102b2565b604051808215151515815260200191505060405180910390f35b3480156100cf57600080fd5b506100d86102c5565b005b3480156100e657600080fd5b506100ef610430565b005b3480156100fd57600080fd5b50610106610559565b604051808273ffffffffffffffffffffffffffffffffffffffff1673ffffffffffffffffffffffffffffffffffffffff16815260200191505060405180910390f35b34801561015457600080fd5b50610189600480360381019080803573ffffffffffffffffffffffffffffffffffffffff16906020019092919050505061057e565b005b6000809054906101000a900473ffffffffffffffffffffffffffffffffffffffff1673ffffffffffffffffffffffffffffffffffffffff163373ffffffffffffffffffffffffffffffffffffffff1614151561024f576040517f08c379a000000000000000000000000000000000000000000000000000000000815260040180806020018281038252600f8152602001807f496e636f7272656374204f776e6572000000000000000000000000000000000081525060200191505060405180910390fd5b600060149054906101000a900460ff16151561026a57600080fd5b60008060146101000a81548160ff0219169083151502179055507f7805862f689e2f13df9f062ff482ad3ad112aca9e0847911ed832e158c525b3360405160405180910390a1565b600060149054906101000a900460ff1681565b6000809054906101000a900473ffffffffffffffffffffffffffffffffffffffff1673ffffffffffffffffffffffffffffffffffffffff163373ffffffffffffffffffffffffffffffffffffffff16141515610389576040517f08c379a000000000000000000000000000000000000000000000000000000000815260040180806020018281038252600f8152602001807f496e636f7272656374204f776e6572000000000000000000000000000000000081525060200191505060405180910390fd5b6000809054906101000a900473ffffffffffffffffffffffffffffffffffffffff1673ffffffffffffffffffffffffffffffffffffffff167ff8df31144d9c2f0f6b59d69b8b98abd5459d07f2742c4df920b25aae33c6482060405160405180910390a260008060006101000a81548173ffffffffffffffffffffffffffffffffffffffff021916908373ffffffffffffffffffffffffffffffffffffffff160217905550565b6000809054906101000a900473ffffffffffffffffffffffffffffffffffffffff1673ffffffffffffffffffffffffffffffffffffffff163373ffffffffffffffffffffffffffffffffffffffff161415156104f4576040517f08c379a000000000000000000000000000000000000000000000000000000000815260040180806020018281038252600f8152602001807f496e636f7272656374204f776e6572000000000000000000000000000000000081525060200191505060405180910390fd5b600060149054906101000a900460ff1615151561051057600080fd5b6001600060146101000a81548160ff0219169083151502179055507f6985a02210a168e66602d3235cb6db0e70f92b3ba4d376a33c0f3d9434bff62560405160405180910390a1565b6000809054906101000a900473ffffffffffffffffffffffffffffffffffffffff1681565b6000809054906101000a900473ffffffffffffffffffffffffffffffffffffffff1673ffffffffffffffffffffffffffffffffffffffff163373ffffffffffffffffffffffffffffffffffffffff16141515610642576040517f08c379a000000000000000000000000000000000000000000000000000000000815260040180806020018281038252600f8152602001807f496e636f7272656374204f776e6572000000000000000000000000000000000081525060200191505060405180910390fd5b600073ffffffffffffffffffffffffffffffffffffffff168173ffffffffffffffffffffffffffffffffffffffff16141515156106e7576040517f08c379a00000000000000000000000000000000000000000000000000000000081526004018080602001828103825260198152602001807f416464726573732073686f756c64206e6f74206265203078300000000000000081525060200191505060405180910390fd5b8073ffffffffffffffffffffffffffffffffffffffff166000809054906101000a900473ffffffffffffffffffffffffffffffffffffffff1673ffffffffffffffffffffffffffffffffffffffff167f8be0079c531659141344cd1fd0a4f28419497f9722a3daafe3b4186f6b6457e060405160405180910390a3806000806101000a81548173ffffffffffffffffffffffffffffffffffffffff021916908373ffffffffffffffffffffffffffffffffffffffff160217905550505600a165627a7a7230582013fd8539e9e7bd9a9d766dec91875285eed2b06f5e7215a1660a64f336baa5ce0029",
  "source": "pragma solidity 0.4.24;\n\n// File: contracts\\misc\\Ownable.sol\n\n/**\n * @title Ownable\n * @dev The Ownable contract has an owner address, and provides basic authorization control\n * functions, this simplifies the implementation of \"user permissions\".\n */\ncontract Ownable \n{\n    address public owner;\n\n    event OwnershipRenounced(address indexed previousOwner);\n    event OwnershipTransferred(\n      address indexed previousOwner,\n      address indexed newOwner\n    );\n\n    constructor() public \n    {\n        owner = msg.sender;\n    }\n\n    modifier onlyOwner() \n    {\n        require(msg.sender == owner, \"Incorrect Owner\");\n        _;\n    }\n\n    function transferOwnership(address _newOwner) public\n    onlyOwner \n    {\n        require(_newOwner != address(0), \"Address should not be 0x0\");\n        emit OwnershipTransferred(owner, _newOwner);\n        owner = _newOwner;\n    }\n\n    function renounceOwnership() public \n    onlyOwner \n    {\n        emit OwnershipRenounced(owner);\n        owner = address(0);\n    }\n}\n\n// File: contracts\\misc\\SafeMath.sol\n\n/**\n * @title SafeMath\n * @dev Math operations with safety checks that revert on error\n */\nlibrary SafeMath \n{\n    function mul(uint256 a, uint256 b) internal pure \n    returns (uint256 c) \n    {\n        if (a == 0) \n        {\n            return 0;\n        }\n\n        c = a * b;\n        assert(c / a == b);\n        return c;\n    }\n\n    function div(uint256 a, uint256 b) internal pure \n    returns (uint256) \n    {\n        return a / b;\n    }\n\n    function sub(uint256 a, uint256 b) internal pure \n    returns (uint256) \n    {\n        assert(b <= a);\n        return a - b;\n    }\n\n    function add(uint256 a, uint256 b) internal pure \n    returns (uint256 c) \n    {\n        c = a + b;\n        assert(c >= a);\n        return c;\n    }\n}\n\n// File: contracts\\token\\ERC20Basic.sol\n\n/**\n * @title ERC20 Basic interface\n * @dev see https://github.com/ethereum/EIPs/issues/20\n */\ncontract ERC20Basic \n{\n    function totalSupply() public view returns (uint256);\n    function balanceOf(address who) public view returns (uint256);\n    function transfer(address to, uint256 value) public returns (bool);\n    event Transfer(address indexed from, address indexed to, uint256 value);\n}\n\n// File: contracts\\token\\BasicToken.sol\n\ncontract BasicToken is ERC20Basic \n{\n    using SafeMath for uint256;\n    mapping(address => uint256) public balances;\n    \n    uint256 public totalSupply_;\n\n    function totalSupply() public view \n    returns (uint256) \n    {\n        return totalSupply_;\n    }\n\n    function transfer(address _to, uint256 _value) public \n    returns (bool) \n    {\n        require(_to != address(0));\n        require(_value <= balances[msg.sender]);\n\n        balances[msg.sender] = balances[msg.sender].sub(_value);\n        balances[_to] = balances[_to].add(_value);\n        emit Transfer(msg.sender, _to, _value);\n        return true;\n    }\n\n    function balanceOf(address _owner) public view \n    returns (uint256) \n    {\n        return balances[_owner];\n    }\n}\n\n// File: contracts\\token\\BurnableToken.sol\n\n/**\n * @title Burnable Token\n * @dev Token that can be irreversibly burned (destroyed).\n */\ncontract BurnableToken is BasicToken, Ownable\n{\n    event Burn(address indexed burner, uint256 value);\n\n    function burn(uint256 value) public\n    onlyOwner\n    {\n        address burnAddress = msg.sender;\n        require(value <= balances[burnAddress]);\n\n        balances[burnAddress] = balances[burnAddress].sub(value);\n        totalSupply_ = totalSupply_.sub(value);\n\n        emit Burn(burnAddress, value);\n    }\n}\n\n// File: contracts\\token\\ERC20.sol\n\n/**\n * @title ERC20 interface\n * @dev see https://github.com/ethereum/EIPs/issues/20\n */\ncontract ERC20 is ERC20Basic \n{\n    function allowance(address owner, address spender) public view returns (uint256);\n    function transferFrom(address from, address to, uint256 value) public returns (bool);\n    function approve(address spender, uint256 value) public returns (bool); \n    \n    event Approval(address indexed owner, address indexed spender, uint256 value);\n}\n\n// File: contracts\\token\\StandardToken.sol\n\n/**\n * @title Standard ERC20 token\n *\n * @dev Implementation of the basic standard token.\n * https://github.com/ethereum/EIPs/blob/master/EIPS/eip-20.md\n * Based on code by FirstBlood: https://github.com/Firstbloodio/token/blob/master/smart_contract/FirstBloodToken.sol\n */\ncontract StandardToken is ERC20, BasicToken \n{\n    mapping (address => mapping (address => uint256)) internal allowed;\n\n    function transferFrom(address _from, address _to, uint256 _value) public\n    returns (bool)\n    {\n        require(_to != address(0));\n        require(_value <= balances[_from]);\n        require(_value <= allowed[_from][msg.sender]);\n\n        balances[_from] = balances[_from].sub(_value);\n        balances[_to] = balances[_to].add(_value);\n        allowed[_from][msg.sender] = allowed[_from][msg.sender].sub(_value);\n        emit Transfer(_from, _to, _value);\n        return true;\n    }\n\n    function approve(address _spender, uint256 _value) public \n    returns (bool) \n    {\n        allowed[msg.sender][_spender] = _value;\n        emit Approval(msg.sender, _spender, _value);\n        return true;\n    }\n\n    function allowance(address _owner, address _spender) public view\n    returns (uint256)\n    {\n        return allowed[_owner][_spender];\n    }\n\n    function increaseApproval(address _spender, uint256 _addedValue) public\n    returns (bool)\n    {\n        allowed[msg.sender][_spender] = (\n        allowed[msg.sender][_spender].add(_addedValue));\n        emit Approval(msg.sender, _spender, allowed[msg.sender][_spender]);\n        return true;\n    }\n\n    function decreaseApproval(address _spender, uint256 _subtractedValue) public\n    returns (bool)\n    {\n        uint256 oldValue = allowed[msg.sender][_spender];\n\n        if (_subtractedValue > oldValue) \n        {\n            allowed[msg.sender][_spender] = 0;\n        } \n        else \n        {\n            allowed[msg.sender][_spender] = oldValue.sub(_subtractedValue);\n        }\n\n        emit Approval(msg.sender, _spender, allowed[msg.sender][_spender]);\n        return true;\n    }\n\n}\n\n// File: contracts\\token\\MintableToken.sol\n\n/**\n * @title Mintable token\n * @dev Simple ERC20 Token example, with mintable token creation\n * Based on code by TokenMarketNet: https://github.com/TokenMarketNet/ico/blob/master/contracts/MintableToken.sol\n */\ncontract MintableToken is StandardToken, Ownable \n{\n    event Mint(address indexed to, uint256 amount);\n\n    function mint(address _to, uint256 _amount) public\n    onlyOwner\n    returns (bool)\n    {\n        totalSupply_ = totalSupply_.add(_amount);\n        balances[_to] = balances[_to].add(_amount);\n        emit Mint(_to, _amount);\n        emit Transfer(address(0), _to, _amount);\n        return true;\n    }\n}\n\n// File: contracts\\misc\\Pausable.sol\n\n/**\n * @title Pausable\n * @dev Base contract which allows children to implement an emergency stop mechanism.\n */\ncontract Pausable is Ownable \n{\n    event Pause();\n    event Unpause();\n\n    bool public paused = false;\n\n    modifier whenNotPaused() {\n        require(!paused);\n        _;\n    }\n\n    modifier whenPaused() {\n        require(paused);\n        _;\n    }\n\n    function pause() public\n    onlyOwner \n    whenNotPaused  \n    {\n        paused = true;\n        emit Pause();\n    }\n\n    function unpause() public\n    onlyOwner \n    whenPaused  \n    {\n        paused = false;\n        emit Unpause();\n    }\n}\n\n// File: contracts\\token\\PausableToken.sol\n\n/**\n * @title Pausable token\n * @dev StandardToken modified with pausable transfers.\n **/\ncontract PausableToken is StandardToken, Pausable \n{\n    function transfer(address _to, uint256 _value) public\n    whenNotPaused\n    returns (bool)\n    {\n        return super.transfer(_to, _value);\n    }\n\n    function transferFrom(address _from, address _to, uint256 _value) public\n    whenNotPaused\n    returns (bool)\n    {\n        return super.transferFrom(_from, _to, _value);\n    }\n\n    function approve(address _spender, uint256 _value) public\n    whenNotPaused\n    returns (bool)\n    {\n        return super.approve(_spender, _value);\n    }\n\n    function increaseApproval(address _spender, uint _addedValue) public\n    whenNotPaused\n    returns (bool success)\n    {\n        return super.increaseApproval(_spender, _addedValue);\n    }\n\n    function decreaseApproval(address _spender, uint _subtractedValue) public\n    whenNotPaused\n    returns (bool success)\n    {\n        return super.decreaseApproval(_spender, _subtractedValue);\n    }\n}\n\n// File: contracts\\IndexToken.sol\n\ncontract DQR30 is BurnableToken, MintableToken, PausableToken\n{\n    string constant public name = \"DQR 30\";\n    string constant public symbol = \"dqr30\";\n\n    uint public decimals = 18;\n}\n",
  "sourcePath": "/Users/cruzmolina/Code/dqrtoken/contracts/DQR30.sol",
  "compiler": {
    "name": "solc",
    "version": "0.4.24+commit.e67f0147.Emscripten.clang"
  },
  "schemaVersion": "2.0.1",
  "updatedAt": "2020-03-02T22:42:17.991Z"
}